:020000040800F2
:10000000600400204501000819060008B105000839
:10001000150600088D010008F91000080000000016
:100020000000000000000000000000002D07000894
:10003000E901000800000000E9060008190C0008AA
:100040005F0100085F0100085F0100085F01000810
:100050005F0100085F010008810200085F010008DD
:100060005F0100085F0100085F0100085F010008F0
:100070005F0100085F0100085F0100085F010008E0
:100080005F0100085F0100085F0100085F010008D0
:100090005F0100085F0100085F0100085F010008C0
:1000A0005F0100085F0100085F0100085F010008B0
:1000B0005F0100085F0100085F0100085F010008A0
:1000C0005F0100085F0100085F0100085F01000890
:1000D0005F0100085F0100085F0100085F01000880
:1000E000A50200085F0100085F0100085F01000829
:1000F0005F0100085F0100085F0100085F01000860
:100100005F0100085F0100087D0C00085F01000826
:100110005F0100085F010008BD0C0008F90C000831
:100120005F0100085F0100085F0100085F0100082F
:10013000DFF80CD000F018F8004800471D11000847
:10014000600400200648804706480047FEE7FEE7B7
:10015000FEE7FEE7FEE7FEE7FEE7FEE7FEE7FEE777
:100160001D0C000831010008064C074D06E0E06850
:1001700040F0010394E8070098471034AC42F6D3EE
:10018000FFF7DAFFF01100081012000800BFFEE7C9
:10019000642900DD704742F21073984207DD47235F
:1001A00013850F4B4B4393FBF0F3938516E0B0F5AB
:1001B0007A7F08DD40F2CF2313850A4B4B4393FB34
:1001C000F0F393850AE0642808DD40F60F63138599
:1001D00044F620634B4393FBF0F3938500BFD9E7CC
:1001E00040420F00A0860100704700000EB500F0ED
:1001F00014FA0121052000F089FA0121112000F0F4
:1002000085FA04208DF80B000120ADF8080002A942
:10021000194800F017F90021084600F0F3F8012012
:10022000009000208DF8040008208DF805000120C2
:100230008DF80600684600F065F804208DF80B0084
:10024000C002ADF8080002A90C4800F0FBF80D212F
:10025000022000F0D7F84FF40050009000208DF8F5
:1002600004000C208DF8050001208DF8060068467A
:1002700000F048F80EBD00000008014000100140E9
:1002800010B5012000F02AF840B10548006880F060
:10029000010003490860012000F01AF810BD0000B9
:1002A0000C0C014010B54FF4005000F017F858B195
:1002B0000648006880F002000449086000F0ACFACB
:1002C0004FF4005000F004F810BD00000C0C014089
:1002D00001490860704700001404014001460020F5
:1002E0000022074B1B6803EA0102054B14331B680D
:1002F0000B4013B10AB1012000E00020704700005C
:1003000000040140002123498279002A3AD00A469C
:10031000126803689A430B461A600A1D1268036844
:100320009A430B1D1A60027911440A6803681A4344
:100330000A60184A0832126803689A43154B08335A
:100340001A601A1D126803689A43124B0C331A6024
:100350004279102A0ED11A1F126803681A430D4BF6
:1003600008331A601A1D126803681A43094B0C33CC
:100370001A600DE00749427911440A6803681A437C
:100380000A6005E0027911440A6803689A430A602A
:10039000704700000004014008B50121112000F061
:1003A000B5F910208DF8030003208DF802004FF4FA
:1003B0008070ADF800006946114800F043F84FF432
:1003C0000070ADF8000069460D4800F03BF84FF4AE
:1003D0008060ADF800006946094800F033F84FF43A
:1003E0008071074800F0E2F84FF40071044800F013
:1003F000DDF84FF48061024800F0D8F808BD000035
:100400000010014030B500228B071C0F0F2303FAA8
:1004100004F20B4B8C1053F824309343084C8D108E
:1004200044F8253023468C1053F824308C07240FD1
:1004300000FA04F42343024C8D1044F8253030BDFB
:10044000080001402DE9F041024600250026002069
:1004500000230024002791F803C00CF00F0591F849
:1004600003C00CF0100CBCF1000F03D091F802C0D7
:100470004CEA050591F800C0BCF1000F31D01468BA
:1004800000202BE04FF0010C0CFA00F3B1F800C093
:100490000CEA03069E4220D183004FF00F0C0CFAA9
:1004A00003F7BC4305FA03FC4CEA040491F803C0CB
:1004B000BCF1280F06D14FF0010C0CFA00FCC2F879
:1004C00014C00AE091F803C0BCF1480F05D14FF009
:1004D000010C0CFA00FCC2F810C0401C0828D1D353
:1004E0001460B1F800C0BCF1FF0F34DD5468002087
:1004F0002EE000F1080C4FF0010808FA0CF3B1F8F7
:1005000000C00CEA03069E4221D183004FF00F0C7D
:100510000CFA03F7BC4305FA03FC4CEA040491F817
:1005200003C0BCF1280F05D100F1080C08FA0CF843
:10053000C2F8148091F803C0BCF1480F07D100F154
:10054000080C4FF0010808FA0CF8C2F81080401CA3
:100550000828CED35460BDE8F081416170470000A7
:1005600008B501210D2000F0D1F818208DF8030006
:1005700003208DF802000820ADF800006946094804
:10058000FFF760FF4020ADF8000069460548FFF71F
:1005900059FF4020ADF8000069460348FFF752FFBD
:1005A00008BD000000080140000C014001617047D7
:1005B00000BFFEE708B50121082000F0A7F81020D1
:1005C0008DF8030003208DF802000120ADF8000033
:1005D00069460F48FFF736FF0220ADF80000694674
:1005E0000B48FFF72FFF2020ADF8000069460848B0
:1005F000FFF728FF01210648FFF7D8FF0221044832
:10060000FFF7D4FF20210248FFF7D0FF08BD00000C
:10061000000C014000BFFEE7704708B54FF4C06012
:1006200000F058F806208DF8000001208DF8010038
:100630008DF802008DF80300684600F013F82820BA
:100640008DF80000684600F00DF808BD00F01F02AC
:1006500001219140024A430942F8231070470000EB
:1006600080E100E070B5002100230F22C47804B3BC
:10067000154C246804F4E064C4F5E064210AC1F177
:100680000403CA40447804FA03F1847814402143F7
:1006900009010E4C0678A155047804F01F050124C9
:1006A000AC4005786D11AD0005F1E025C5F80041BD
:1006B00009E0047804F01F050124AC40044D0678DD
:1006C000761145F8264070BD0CED00E000E400E036
:1006D00080E100E002490143024A116070470000D6
:1006E0000000FA050CED00E07047000029B1064A51
:1006F000D2690243044BDA6104E0034AD2698243BF
:10070000014BDA61704700000010024029B1064A2F
:1007100092690243044B9A6104E0034A926982435E
:10072000014B9A617047000000100240704710B5FD
:1007300000F002F810BD00000CB500200190009000
:100740003348006840F480303149086000BF3048C9
:10075000006800F4003000900198401C019000985F
:1007600018B90198B0F5A06FF1D12948006800F4DC
:10077000003010B10120009001E0002000900098AE
:10078000012843D12348006840F010002149086047
:100790000846006820F0030008600846006840F042
:1007A000020008601A4840681949486008464068D5
:1007B00048600846406840F48060486008464068E9
:1007C00020F47C1048600846406840F4E810486017
:1007D0000846006840F08070086000BF0C48006860
:1007E00000F000700028F9D00948406820F00300AC
:1007F000074948600846406840F00200486000BF72
:100800000348406800F00C000828F9D10CBD000036
:10081000001002400020024010B50C214FF0804033
:1008200000F09EF910BD70B504460D460122294620
:10083000204600F081FA0121204600F08FFA70BDB9
:100840002DE9F04106460F46144606EBC600C000EF
:1008500022490968B1FBF0F0451EA9B2384600F004
:10086000EEFB64B9681C32214843642190FBF1F02F
:100870001FFA80F84146384600F0E3FB2BE0042CD9
:100880000CD1681C32214843642190FBF1F01FFA1F
:1008900080F84146384600F0D6FB1CE0082C0CD10D
:1008A000681C32214843642190FBF1F01FFA80F864
:1008B0004146384600F0C9FB0DE00C2C0BD1681CFA
:1008C00032214843642190FBF1F01FFA80F8414641
:1008D000384600F0BCFBBDE8F081000000000020BD
:1008E00010B51948007800B110BD012016490870F4
:1008F00016488079012804D101021548FFF756FEF9
:1009000004E04FF480711248FFF727FE0F498888F2
:100910000C224FF08041FFF793FF0C4A51889088DA
:100920000C4AFFF735FC01200A49143108800C21DC
:100930008007FFF778FF0121064800F00CFA01203C
:100940000249C87100BFCFE7140000203C0000201E
:1009500000100140000C00402DE9FF4104460F4605
:1009600015461E4601213820FFF7C0FE781E80B2D2
:10097000ADF80800681E80B2ADF804004448844217
:1009800001D0012000E0002042498C4201D0012129
:1009900000E00021084320B10020ADF80A00ADF8C6
:1009A000060001A9204600F055FB0121204600F079
:1009B000D2F901221146204600F0DCF9012120463F
:1009C00000F0CCF94FF44070FFF784FEB4F1804F93
:1009D00003D11C208DF8000021E02F48844203D170
:1009E0001D208DF800001AE02C48844203D11E20FF
:1009F0008DF8000013E02A48844203D132208DF89C
:100A000000000CE02248844203D136208DF800001B
:100A100005E02048844202D137208DF800008DF88F
:100A2000016001208DF802008DF803006846FFF791
:100A300019FE1C20FFF70AFEB4F1804F03D11C20E1
:100A4000FFF704FE21E01448844203D11D20FFF784
:100A5000FDFD1AE01148844203D11E20FFF7F6FD88
:100A600013E00F48844203D13220FFF7EFFD0CE082
:100A70000748844203D13620FFF7E8FD05E005482A
:100A8000844202D13720FFF7E1FDBDE8FF8100007D
:100A90000010004000140040000400400008004026
:100AA000000C004070B588B006460D461446012182
:100AB0003046FFF71BFE294800684FF4E151B0FBB8
:100AC000F1F0401E80B2ADF818004720ADF81400D8
:100AD0000020ADF81A00ADF8160005A9284600F070
:100AE000B9FA6020ADF804000020ADF80600ADF8BA
:100AF0000C0044B901A9284600F046F9082128460F
:100B000000F08EF91FE0042C08D101A9284600F05E
:100B100091F90821284600F0DFF914E0082C08D1EB
:100B200001A9284600F0E6F90821284600F032FA2B
:100B300009E00C2C07D101A9284600F035FA08215C
:100B4000284600F06FFA00222146284600F0F4F80B
:100B50000021284600F002F908B070BD0000002016
:100B600070B504460D4601222946204600F0E4F8FF
:100B70000021204600F0F2F870BD10B5FFF70CFC24
:100B8000FFF7EEFC00F01AF800F002F810BD0000CC
:100B900064200749888007498880074988800120A8
:100BA00003498871034988710349887170470000BF
:100BB0003C000020480000205400002010B50C220A
:100BC0004FF080410120FFF76DFF00220D49022008
:100BD000FFF768FF00220C490420FFF763FF0123A1
:100BE0001A4619460948FFF7B7FE01231A46194667
:100BF0000748FFF7B1FE01231A4619460548FFF7DB
:100C0000ABFE10BD0004004000080040000C004096
:100C100000100040001400407047000010B5134859
:100C2000006840F00100114908600846406810491A
:100C300008400E494860084600680E4908400B49C4
:100C400008600846006820F4802008600846406874
:100C500020F4FE0048604FF41F008860FFF767FD36
:100C60004FF000600449086010BD00000010024011
:100C70000000FFF8FFFFF6FE08ED00E010B50D489C
:100C8000008800F00100A0B10A48008820F00100AF
:100C90000849088000200749143108803220FFF7F6
:100CA000D5FC0C214FF08040FFF75AFF002002498D
:100CB000087010BD100C00401400002010B50C4846
:100CC000008A00F0010090B10948008A20F001007C
:100CD00007490882002088843620FFF7B7FC0C21E2
:100CE0004FF08040FFF73CFF00200249087010BD24
:100CF000001000401500002010B50D48008800F0DD
:100D00000100A0B10A48008820F0010008490880CD
:100D100000200749143108803720FFF797FC0C2189
:100D20004FF08040FFF71CFF00200249087010BD03
:100D3000101400401600002030B5002301248C4020
:100D4000A3B2048C9C430484048C02FA01F5ADB276
:100D50002C43048430BDCA430282704721B102880B
:100D600042F00102028004E002884FF6FE731A404E
:100D7000028070471AB183890B43838102E0838923
:100D80008B4383817047000070B50024002200234C
:100D9000058C4FF6FE7635400584028C8388048BE3
:100DA0004FF68F752C40B51E2C400D882C43751EB8
:100DB0002A400D892A434D882A43144DA8420BD05E
:100DC000134DA84208D0134DA84205D0124DA84299
:100DD00002D0124DA84213D14FF6F7752A404D8923
:100DE0002A434FF6FB752A408D882A434FF6FF654C
:100DF0002B404FF6FF552B408D892B43CD892B433C
:100E000083800483CD888586028470BD002C0140D8
:100E100000340140004001400044014000480140CE
:100E20000A460021018B4FF6F773194011430183E5
:100E30007047000070B5002400220023058C4FF697
:100E4000EF7635400584028C8388048B48F6FF7565
:100E50002C404FF6FF452C400D884FF6FF7606EAF2
:100E600005252C434FF6DF752A400D8906EA051546
:100E70002A434D8806EA05152A43154DA84202D09B
:100E8000144DA8421DD14FF67F752A404D894FF66B
:100E9000FF7606EA05152A434FF6BF752A408D886E
:100EA00006EA05152A434FF6FF352B404FF2FF7532
:100EB0002B408D8906EA85052B43CD8906EA8505F9
:100EC0002B4383800483CD880587028470BD000096
:100ED000002C0140003401400A460021018B4FF2F2
:100EE000FF7319404FF6FF7303EA0223194301838E
:100EF0007047000070B5002400220023058C4FF6D7
:100F0000FF6635400584028C8388848B4FF68F758D
:100F10002C404FF6FC752C400D882C434FF6FF55A6
:100F20002A400D894FF6FF7606EA05252A434D88AB
:100F300006EA05252A43154DA84202D0144DA842C1
:100F40001DD14FF2FF752A404D894FF6FF7606EA14
:100F500005252A434FF6FF352A408D8806EA0525E8
:100F60002A434EF6FF752B404DF6FF752B408D89B9
:100F700006EA05152B43CD8906EA05152B43838028
:100F80008483CD888587028470BD0000002C0140D9
:100F9000003401400A460021818B4FF6F773194057
:100FA000114381837047000070B5002200230024A4
:100FB000058C4EF6FF7635400584038C8488828B41
:100FC00048F6FF752A404FF6FF452A400D884FF638
:100FD000FF7606EA05252A434DF6FF752B400D895D
:100FE00006EA05352B434D8806EA05352B430B4DA4
:100FF000A84202D00A4DA84208D14BF6FF752C40FA
:101000008D894FF6FF7606EA85152C43848082830E
:10101000CD88A0F84050038470BD0000002C014032
:10102000003401400A460021818B4FF2FF731940C2
:101030004FF6FF7303EA02231943818370478185CA
:101040007047818670470187704781877047A0F895
:1010500040107047002202881D4B98420ED01D4B55
:1010600098420BD0B0F1804F08D01B4B984205D06E
:101070001A4B984202D01A4B984204D14FF68F7304
:101080001A404B881A43174B984207D0164B984288
:1010900004D04FF6FF431A40CB881A4302808B8856
:1010A00083850B8803850A4B98420BD0094B9842E5
:1010B00008D00E4B984205D00D4B984202D00D4BF4
:1010C000984201D10B7A0386012383827047000086
:1010D000002C0140003401400004004000080040A2
:1010E000000C00400010004000140040004001408F
:1010F000004401400048014000BFFEE702E008C88C
:10110000121F08C1002AFAD170477047002001E081
:1011100001C1121F002AFBD170470000FFF74AFAF5
:10112000FFF764F8FFF729FDFFF744FA012459E0BF
:101130002D480078002855D12C488088642802DA90
:1011400064202A49888029488088B0F57A7F03DAAC
:1011500001202649488012E02448808842F210711C
:10116000884203DA02202149488008E01F4880882D
:1011700044F62061884202DA04201C4948801B485A
:1011800080882044194988800846807930B1084613
:101190004089498808441549488106E01348408938
:1011A00012494988401A11494881FFF799FB0F48B5
:1011B000408941F27071884200DD64420B488088AA
:1011C000B0F5FA7F01DA012000E0002007494989E3
:1011D00009B9012100E00021084018B100200349AD
:1011E00088716442A4E70000140000201800002069
:1011F000101200080000002018000000FC10000879
:101200002812000818000020480400000C110008F3
:1012100000A24A04000000000000000001020304D4
:081220000607080900000000A8
:0400000508000131BD
:00000001FF
