:020000040800F2
:10000000300400204501000831050008C70400083D
:100010002D050008B9010008931400080000000035
:1000200000000000000000000000000019070008A8
:10003000BD01000800000000010600082D0E0008A8
:100040005F0100085F0100085F0100085F01000810
:100050005F0100085F010008550200085F01000809
:100060005F0100085F0100085F0100085F010008F0
:100070005F0100085F0100085F0100085F010008E0
:100080005F0100085F0100085F0100085F010008D0
:100090005F0100085F0100085F0100085F010008C0
:1000A0005F0100085F0100085F0100085F010008B0
:1000B0005F0100085F0100085F0100085F010008A0
:1000C0005F0100085F0100085F0100085F01000890
:1000D0005F0100085F0100085F0100085F01000880
:1000E000790200085F0100085F0100085F01000855
:1000F0005F0100085F0100085F0100085F01000860
:100100005F0100085F010008910E00085F01000810
:100110005F0100085F010008C90E0008FD0E00081D
:100120005F0100085F0100085F0100085F0100082F
:10013000DFF80CD000F02EF800480047D916000870
:10014000300400200648804706480047FEE7FEE7E7
:10015000FEE7FEE7FEE7FEE7FEE7FEE7FEE7FEE777
:10016000310E00083101000830B50B460146002071
:100170002022012409E021FA02F59D4205D303FA69
:1001800002F5491B04FA02F52844151EA2F10102EA
:10019000F1DC30BD064C074D06E0E06840F001039D
:1001A00094E8070098471034AC42F6D3FFF7C4FF39
:1001B000AC170008CC17000800BFFEE7704700002E
:1001C0000EB500F0B6F90121052000F02BFA01214F
:1001D000112000F027FA04208DF80B000120ADF863
:1001E000080002A9194800F0E1F80021084600F0D3
:1001F000BDF80120009000208DF8040008208DF843
:10020000050001208DF80600684600F065F804201E
:100210008DF80B00C002ADF8080002A90C4800F0F0
:10022000C5F80D21022000F0A1F84FF40050009015
:1002300000208DF804000C208DF8050001208DF8B9
:100240000600684600F048F80EBD000000080140B6
:100250000010014010B5012000F02AF840B1054817
:10026000006880F0010003490860012000F01AF8DE
:1002700010BD00000C0C014010B54FF4005000F010
:1002800017F858B10648006880F002000449086079
:1002900000F091FB4FF4005000F004F810BD000096
:1002A0000C0C014001490860704700001404014033
:1002B000014600200022074B1B6803EA0102054BA0
:1002C00014331B680B4013B10AB1012000E0002079
:1002D0007047000000040140002123498279002A70
:1002E0003AD00A46126803689A430B461A600A1D00
:1002F000126803689A430B1D1A60027911440A6858
:1003000003681A430A60184A0832126803689A435D
:10031000154B08331A601A1D126803689A43124B72
:100320000C331A604279102A0ED11A1F1268036822
:100330001A430D4B08331A601A1D126803681A43DA
:10034000094B0C331A600DE00749427911440A68E1
:1003500003681A430A6005E0027911440A680368D9
:100360009A430A60704700000004014030B5002243
:100370008B071C0F0F2303FA04F20B4B8C1053F85E
:1003800024309343084C8D1044F8253023468C10BC
:1003900053F824308C07240F00FA04F42343024C52
:1003A0008D1044F8253030BD080001402DE9F041A2
:1003B000024600250026002000230024002791F893
:1003C00003C00CF00F0591F803C00CF0100CBCF149
:1003D000000F03D091F802C04CEA050591F800C067
:1003E000BCF1000F31D0146800202BE04FF0010C5D
:1003F0000CFA00F3B1F800C00CEA03069E4220D1CB
:1004000083004FF00F0C0CFA03F7BC4305FA03FC12
:100410004CEA040491F803C0BCF1280F06D14FF058
:10042000010C0CFA00FCC2F814C00AE091F803C0F9
:10043000BCF1480F05D14FF0010C0CFA00FCC2F8DA
:1004400010C0401C0828D1D31460B1F800C0BCF122
:10045000FF0F34DD546800202EE000F1080C4FF04F
:10046000010808FA0CF3B1F800C00CEA03069E423A
:1004700021D183004FF00F0C0CFA03F7BC4305FAAF
:1004800003FC4CEA040491F803C0BCF1280F05D129
:1004900000F1080C08FA0CF8C2F8148091F803C0B7
:1004A000BCF1480F07D100F1080C4FF0010808FA21
:1004B0000CF8C2F81080401C0828CED35460BDE868
:1004C000F0810161704700BFFEE7000008B501211F
:1004D000082000F0A7F810208DF8030003208DF805
:1004E00002000120ADF8000069460F48FFF75EFFEB
:1004F0000220ADF8000069460B48FFF757FF2020A7
:10050000ADF8000069460848FFF750FF0121064892
:10051000FFF7D7FF02210448FFF7D3FF202102484D
:10052000FFF7CFFF08BD0000000C014000BFFEE751
:10053000704708B54FF4C06000F058F806208DF8F9
:10054000000001208DF801008DF802008DF80300F5
:10055000684600F013F828208DF80000684600F087
:100560000DF808BD00F01F0201219140024A430925
:1005700042F823107047000080E100E070B50021D0
:1005800000230F22C47804B3154C246804F4E064FB
:10059000C4F5E064210AC1F10403CA40447804FAB6
:1005A00003F184781440214309010E4C0678A155CB
:1005B000047804F01F050124AC4005786D11AD00EE
:1005C00005F1E025C5F8004109E0047804F01F05B5
:1005D0000124AC40044D0678761145F8264070BDE4
:1005E0000CED00E000E400E080E100E0024901439E
:1005F000024A1160704700000000FA050CED00E0AF
:100600007047000029B1064AD2690243044BDA61FF
:1006100004E0034AD2698243014BDA61704700006B
:100620000010024029B1064A92690243044B9A61C4
:1006300004E0034A92698243014B9A6170470000CB
:100640000010024030B500210022002400232D4D6F
:100650006D6805F00C0121B1042905D0082923D1CA
:1006600005E0294D056022E0274D05601FE0254D7E
:100670006D6805F47012234D6D6805F48034022511
:1006800005EB92421CB9214D554305600BE01D4D11
:100690006D6805F400351DB11C4D5543056002E041
:1006A000194D5543056002E0174D056000BF00BFBE
:1006B000144D6D6805F0F0010909154D6B5C056876
:1006C000DD4045600F4D6D6805F4E061090A104D8D
:1006D0006B5C4568DD4085600A4D6D6805F46051CE
:1006E000C90A0B4D6B5C4568DD40C560054D6D6802
:1006F00005F44041890B074D6B5CC568B5FBF3F50C
:10070000056130BD0010024000127A0000093D0072
:100710001400002024000020704710B500F002F8FB
:1007200010BD00000CB50020019000903348006817
:1007300040F480303149086000BF3048006800F460
:10074000003000900198401C0190009818B9019861
:10075000B0F5A06FF1D12948006800F4003010B165
:100760000120009001E0002000900098012843D172
:100770002348006840F010002149086008460068DE
:1007800020F0030008600846006840F0020008609E
:100790001A48406819494860084640684860084659
:1007A000406840F4806048600846406820F47C104F
:1007B00048600846406840F4E81048600846006811
:1007C00040F08070086000BF0C48006800F00070C6
:1007D0000028F9D00948406820F003000749486024
:1007E0000846406840F00200486000BF0348406887
:1007F00000F00C000828F9D10CBD000000100240E8
:100800000020024010B510A000F046FE4FF4E13188
:100810001AA000F041FE23A000F03EFE2EA000F042
:100820003BFE36A000F038FE3BA000F035FE41A0B4
:1008300000F032FE46A000F02FFE4CA000F02CFE8F
:1008400051A000F029FE10BD0D0A202020D5E2CADB
:10085000C7D2BBB8F6CDA8B9FDB4AEBFDACDA8D02B
:10086000C5D6B8C1EEBFD8D6C63432B2BDBDF8B514
:10087000E7BBFACAB5D1E9200A000000CAB9D3C360
:10088000202055534152542020B2CECAFDCEAAA3F7
:10089000BA256420A1B072A1B1A1B073A1B1200AA0
:1008A00000000000BFAAB7A2B0E5BDD3B5BDD6B861
:1008B000C1EEBAF3BFD8D6C6B2BDBDF8B5E7BBFA34
:1008C000D7B4CCACA3ACD6B8C1EEB6D4D3A6C8E7E7
:1008D000CFC2A3BA0A000000202020D6B8C1EE2063
:1008E00020202D2D2D2D2D2D20B6AFCDA3D5FDB73C
:1008F000B4BCD3BCF5CBD9200A00000020202020B6
:100900002072202020202D2D2D2D2D2D2020202047
:10091000B6AF200A000000002020202020732020F5
:1009200020202D2D2D2D2D2D20202020CDA3200A5F
:1009300000000000202020202031202020202D2D0C
:100940002D2D2D2D20202020D5FD200A0000000077
:10095000202020202030202020202D2D2D2D2D2D39
:1009600020202020B7B4200A0000000020202020F2
:10097000202B202020202D2D2D2D2D2D202020201E
:10098000BCD3CBD9200A000020202020202D2020FD
:1009900020202D2D2D2D2D2D20202020BCF5CBD934
:1009A000200A000010B504460C224FF0804120467A
:1009B00000F030F910BD10B50C214FF0804000F070
:1009C00081F910BD10B5044600220249204600F00E
:1009D00021F910BD0004004010B50021014800F0CD
:1009E00071F910BD0004004010B504460022024910
:1009F000204600F00FF910BD0008004010B500219E
:100A0000014800F05FF910BD000800402DE9FF41EA
:100A100004460F4615461E4601213820FFF7F2FD19
:100A2000781E80B2ADF80800681E80B2ADF80400F0
:100A30004448844201D0012000E0002042498C4219
:100A400001D0012100E00021084320B10020ADF8D1
:100A50000A00ADF8060001A9204600F0F9FB0121CB
:100A6000204600F076FA01221146204600F080FA76
:100A70000121204600F070FA4FF44070FFF7B6FDF8
:100A8000B4F1804F03D11C208DF8000021E02F48E5
:100A9000844203D11D208DF800001AE02C488442C6
:100AA00003D11E208DF8000013E02A48844203D1B0
:100AB00032208DF800000CE02248844203D1362019
:100AC0008DF8000005E02048844202D137208DF8DF
:100AD00000008DF8016001208DF802008DF8030000
:100AE0006846FFF74BFD1C20FFF73CFDB4F1804F3B
:100AF00003D11C20FFF736FD21E01448844203D1C6
:100B00001D20FFF72FFD1AE01148844203D11E205B
:100B1000FFF728FD13E00F48844203D13220FFF78E
:100B200021FD0CE00748844203D13620FFF71AFD6F
:100B300005E00548844202D13720FFF713FDBDE8E8
:100B4000FF8100000010004000140040000400403D
:100B500000080040000C004070B588B006460D4605
:100B6000144601213046FFF74DFD294800684FF437
:100B7000E151B0FBF1F0401E80B2ADF81800472003
:100B8000ADF814000020ADF81A00ADF8160005A964
:100B9000284600F05DFB6020ADF804000020ADF8B1
:100BA0000600ADF80C0044B901A9284600F0EAF9A6
:100BB0000821284600F032FA1FE0042C08D101A9D0
:100BC000284600F035FA0821284600F083FA14E0A0
:100BD000082C08D101A9284600F08AFA08212846E5
:100BE00000F0D6FA09E00C2C07D101A9284600F044
:100BF000D9FA0821284600F013FB00222146284696
:100C000000F098F90021284600F0A6F908B070BD60
:100C1000000000202DE9F04106460F46144606EB81
:100C2000C600C00026490968B1FBF0F0451EA9B214
:100C3000384600F002FB64B9681C32214843642145
:100C400090FBF1F01FFA80F84146384600F0F7FAC1
:100C50002BE0042C0CD1681C32214843642190FB0A
:100C6000F1F01FFA80F84146384600F0EAFA1CE03D
:100C7000082C0CD1681C32214843642190FBF1F010
:100C80001FFA80F84146384600F0DDFA0DE00C2CE2
:100C90000BD1681C32214843642190FBF1F01FFA0C
:100CA00080F84146384600F0D0FA01222146384605
:100CB00000F040F90121384600F04EF9BDE8F0811E
:100CC0000000002070B504460D460122294620464A
:100CD00000F030F90021204600F03EF970BD10B55B
:100CE00000F006F800F03AF800F05EF810BD0000E1
:100CF00008B501211120FFF795FC10208DF80300A5
:100D000003208DF802004FF48070ADF800006946B2
:100D10001148FFF74BFB4FF40070ADF80000694637
:100D20000D48FFF743FB4FF48060ADF800006946C3
:100D30000948FFF73BFB4FF480710748FFF7C1FB01
:100D40004FF400710448FFF7BCFB4FF48061024888
:100D5000FFF7B7FB08BD00000010014008B50121F6
:100D60000D20FFF75FFC18208DF8030003208DF89D
:100D700002000820ADF8000069460948FFF716FB9D
:100D80004020ADF8000069460548FFF70FFB402002
:100D9000ADF8000069460348FFF708FB08BD0000F6
:100DA00000080140000C014010B50C224FF08041BA
:100DB0000120FFF7D1FE00220D490220FFF7CCFEF3
:100DC00000220C490420FFF7C7FE01231A461946EA
:100DD0000948FFF71BFE01231A4619460748FFF78B
:100DE00015FE01231A4619460548FFF70FFE10BDF0
:100DF0000004004000080040000C004000100040CB
:100E00000014004010B504462046FFF7CBFD2046F5
:100E1000FFF7D8FD2046FFF7E7FD10BD10B5FFF73F
:100E2000CAFDFFF7D9FDFFF7E9FD10BD70470000CF
:100E300010B51348006840F00100114908600846E9
:100E40004068104908400E494860084600680E494D
:100E500008400B4908600846006820F480200860BC
:100E60000846406820F4FE0048604FF41F00886088
:100E7000FFF753FC4FF000600449086010BD00000C
:100E8000001002400000FFF8FFFFF6FE08ED00E052
:100E900010B50C48008800F0010088B109480088AE
:100EA00020F001000749088000200649143108801D
:100EB0003220FFF757FB0C214FF08040FFF702FF75
:100EC00010BD0000100C004010B50B48008A00F067
:100ED000010078B10848008A20F001000649088224
:100EE000002088843620FFF73DFB0C214FF0804026
:100EF000FFF7E8FE10BD00000010004010B50C48E0
:100F0000008800F0010088B10948008820F0010045
:100F10000749088000200649143108803720FFF770
:100F200021FB0C214FF08040FFF7CCFE10BD0000EC
:100F30001014004030B5002301248C40A3B2048C6F
:100F40009C430484048C02FA01F5ADB22C43048462
:100F500030BDCA430282704721B1028842F00102CB
:100F6000028004E002884FF6FE731A400280704748
:100F70001AB183890B43838102E083898B43838188
:100F80007047000070B5002400220023058C4FF646
:100F9000FE7635400584028C8388048B4FF68F756E
:100FA0002C40B51E2C400D882C43751E2A400D89FF
:100FB0002A434D882A43144DA8420BD0134DA84212
:100FC00008D0134DA84205D0124DA84202D0124DB0
:100FD000A84213D14FF6F7752A404D892A434FF6A0
:100FE000FB752A408D882A434FF6FF652B404FF64C
:100FF000FF552B408D892B43CD892B438380048360
:10100000CD888586028470BD002C014000340140EB
:101010000040014000440140004801400A460021D0
:10102000018B4FF6F773194011430183704700009D
:1010300070B5002400220023058C4FF6EF76354072
:101040000584028C8388048B48F6FF752C404FF68C
:10105000FF452C400D884FF6FF7606EA05252C4308
:101060004FF6DF752A400D8906EA05152A434D889B
:1010700006EA05152A43154DA84202D0144DA84290
:101080001DD14FF67F752A404D894FF6FF7606EA4F
:1010900005152A434FF6BF752A408D8806EA0515C7
:1010A0002A434FF6FF352B404FF2FF752B408D89B9
:1010B00006EA85052B43CD8906EA85052B43838007
:1010C0000483CD880587028470BD0000002C014098
:1010D000003401400A460021018B4FF2FF73194092
:1010E0004FF6FF7303EA02231943018370470000A0
:1010F00070B5002400220023058C4FF6FF663540B2
:101100000584028C8388848B4FF68F752C404FF6B4
:10111000FC752C400D882C434FF6FF552A400D8955
:101120004FF6FF7606EA05252A434D8806EA05258F
:101130002A43154DA84202D0144DA8421DD14FF2AA
:10114000FF752A404D894FF6FF7606EA05252A43AA
:101150004FF6FF352A408D8806EA05252A434EF6CC
:10116000FF752B404DF6FF752B408D8906EA05155E
:101170002B43CD8906EA05152B4383808483CD88D4
:101180008587028470BD0000002C014000340140BE
:101190000A460021818B4FF6F77319401143818372
:1011A0007047000070B5002200230024058C4EF625
:1011B000FF7635400584038C8488828B48F6FF7562
:1011C0002A404FF6FF452A400D884FF6FF7606EA83
:1011D00005252A434DF6FF752B400D8906EA053596
:1011E0002B434D8806EA05352B430B4DA84202D010
:1011F0000A4DA84208D14BF6FF752C408D894FF659
:10120000FF7606EA85152C4384808283CD88A0F87A
:101210004050038470BD0000002C014000340140A8
:101220000A460021818B4FF2FF7319404FF6FF737E
:1012300003EA0223194381837047818570478186C1
:1012400070470187704781877047A0F8401070474A
:10125000002202881D4B98420ED01D4B98420BD0A5
:10126000B0F1804F08D01B4B984205D01A4B9842E2
:1012700002D01A4B984204D14FF68F731A404B8814
:101280001A43174B984207D0164B984204D04FF69A
:10129000FF431A40CB881A4302808B8883850B88D2
:1012A00003850A4B98420BD0094B984208D00E4B4D
:1012B000984205D00D4B984202D00D4B984201D177
:1012C0000B7A03860123838270470000002C0140C3
:1012D000003401400004004000080040000C0040C1
:1012E0000010004000140040004001400044014054
:1012F0000048014021B1828942F40052828104E019
:1013000082894DF6FF731A408281704700B585B01F
:1013100001210420FFF786F901218803FFF782F9F4
:101320004FF40070ADF8100018208DF81300032062
:101330008DF8120004A91348FFF738F84FF48060C5
:10134000ADF8100004208DF8130004A90D48FFF734
:101350002DF84FF4E13000900020ADF80400ADF816
:101360000600ADF80800ADF80C000C20ADF80A003E
:101370006946054800F018F801210348FFF7BAFF55
:1013800005B000BD000801400038014002460020C1
:10139000B1F5007F00D100BF13880B400BB10120D5
:1013A00000E00020704700002DE9F04786B00546B8
:1013B0000E460024A24600BFA1460027B08900B116
:1013C00000BF2F462C8A4CF6FF700440F08804437F
:1013D0002C82AC894EF6F3100440B0883189084362
:1013E000718908430443AC81AC8A4FF6FF40044046
:1013F000B0890443AC8201A8FFF724F91F48874253
:1014000002D1DDF810A001E0DDF80CA0A88900F4FD
:10141000004040B10AEBCA0000EB0A1031684900F5
:10142000B0FBF1F807E00AEBCA0000EB0A103168E4
:101430008900B0FBF1F86420B8FBF0F0040120094A
:10144000642101FB1089A88900F4004040B13220DA
:1014500000EBC900B0FBF1F000F00700044308E026
:10146000322000EB09106421B0FBF1F000F00F0016
:1014700004432C8106B0BDE8F0870000003801402D
:1014800001468888C0F308007047C1F308028280D3
:10149000704700BFFEE700000FB4054B10B503A96D
:1014A000044A029800F018F810BC5DF814FB000024
:1014B000B11600082C00002002E008C8121F08C165
:1014C000002AFAD170477047002001E001C1121FC5
:1014D000002AFBD1704700002DE9FF4F8BB09A46E0
:1014E0000F460546002606E025280BD052460D99EA
:1014F00090476D1C761C28780028F5D10FB0304637
:10150000BDE8F08F0024A0460122604900E00443BA
:1015100015F8013F203B02FA03F00842F7D1287882
:101520002E2817D115F8010F44F004042A280ED0F4
:101530006FF02F022878A0F1300109290AD808EBB2
:10154000880102EB410100EB01086D1CF2E757F83E
:10155000048B6D1C287869283ED006DC0028CDD08D
:1015600063280BD0642804D136E0732810D0752886
:101570004BD052460D999047761C85E017F8040B26
:101580008DF8000000208DF80100E946012003E0FD
:1015900057F8049B4FF0FF3061074FF0000401D46F
:1015A0000AE0641C44450DDA8442FADB19F80410A1
:1015B0000029F6D106E0641C8442FCDB19F8041013
:1015C0000029F8D1264404E019F8010B52460D9980
:1015D0009047641EF8D257E001CF4FF00A0B002865
:1015E00002DA40422D2102E0210504D52B218DF89D
:1015F0002410012103E0E10705D02021F7E70DF1D8
:10160000200908910CE00021F9E701CF4FF00A0B07
:10161000F9E75946FEF7A8FD01F1300209F8012D5E
:101620000028F6D1ADEB090000F1200B600701D4D2
:101630004FF00108D84502DDA8EB0B0000E00020C8
:101640008046002406E009A85246005D0D999047A7
:10165000641C761C08988442F5DB04E03020524676
:101660000D999047761CB8F10001A8F10108F5DC4E
:1016700005E019F8010B52460D999047761CBBF115
:101680000001ABF1010BF4DC6D1C34E7092801000B
:1016900010B5044600BF20210448FFF777FE00285C
:1016A000F9D00248FFF7ECFE10BD00000038014001
:1016B00070B504460D46E1B20548FFF7E6FE00BFEF
:1016C00080210348FFF762FE0028F9D0204670BD54
:1016D00000380140FFF7DCBFFEF7F8FEFEF770FDB3
:1016E000FFF7FDFAFEF7F2FEFFF710FEFFF78AF8AC
:1016F0006424234800684FF4E151B0FBF1F0461E2A
:10170000314620A0FFF7C8FE2046FFF77BFB35E0FF
:101710001D48FFF7DFFFC5B229461CA0FFF7BCFE3E
:10172000312D13D006DC2B2D16D02D2D19D0302DB8
:101730001CD10EE0722D02D0732D17D103E020468C
:10174000FFF760FB15E0FFF769FB12E0FFF766FBB0
:101750000FE0FFF763FB0CE00A342046FFF752FB73
:1017600007E00A3C2046FFF74DFB02E0FFF74AF88E
:1017700000BF00BF214609A0FFF78EFEC8E70000AA
:10178000000000202564000028000020BDD3CAD539
:10179000B5BDD7D6B7FBA3BA25630A00B5B1C7B0AC
:1017A000C6B5C2CAA3BA25640A000000CC17000857
:1017B0000000002030000000B8140008FC170008EA
:1017C0003000002000040000C814000800A24A04F1
:1017D00000000000000000000102030406070809E1
:1017E00000000000010203040102030406070809C7
:0C17F000020406080000000000000000D9
:0400000508000131BD
:00000001FF
