:020000040800F2
:10000000300400204501000829050008BF0400084D
:1000100025050008B90100084F1100080000000084
:10002000000000000000000000000000F9060008C9
:10003000BD01000800000000E1050008010C0008F7
:100040005F0100085F0100085F0100085F01000810
:100050005F0100085F010008550200085F01000809
:100060005F0100085F0100085F0100085F010008F0
:100070005F0100085F0100085F0100085F010008E0
:100080005F0100085F0100085F0100085F010008D0
:100090005F0100085F0100085F0100085F010008C0
:1000A0005F0100085F0100085F0100085F010008B0
:1000B0005F0100085F0100085F0100085F010008A0
:1000C0005F0100085F0100085F0100085F01000890
:1000D0005F0100085F0100085F0100085F01000880
:1000E000790200085F0100085F0100085F01000855
:1000F0005F0100085F0100085F0100085F01000860
:100100005F0100085F0100085F0100085F0100084F
:100110005F0100085F0100085F0100085F0100083F
:100120005F0100085F0100085F0100085F0100082F
:10013000DFF80CD000F02EF80048004795130008B7
:10014000300400200648804706480047FEE7FEE7E7
:10015000FEE7FEE7FEE7FEE7FEE7FEE7FEE7FEE777
:10016000050C00083101000830B50B46014600209F
:100170002022012409E021FA02F59D4205D303FA69
:1001800002F5491B04FA02F52844151EA2F10102EA
:10019000F1DC30BD064C074D06E0E06840F001039D
:1001A00094E8070098471034AC42F6D3FFF7C4FF39
:1001B000481400086814000800BFFEE770470000FC
:1001C0000EB500F0B2F90121052000F01BFA012163
:1001D000112000F017FA04208DF80B000120ADF873
:1001E000080002A9194800F0DDF80021084600F0D7
:1001F000B9F80120009000208DF8040008208DF847
:10020000050001208DF80600684600F061F8042022
:100210008DF80B00C002ADF8080002A90C4800F0F0
:10022000C1F80D21022000F09DF84FF4005000901D
:1002300000208DF804000C208DF8050001208DF8B9
:100240000600684600F044F80EBD000000080140BA
:100250000010014010B5012000F026F840B105481B
:10026000006880F0010003490860012000F016F8E2
:1002700010BD00000C0C014010B54FF4005000F010
:1002800013F840B10448006880F002000249086099
:10029000481400F003F810BD0C0C0140014908603F
:1002A0007047000014040140014600200022074B63
:1002B0001B6803EA0102054B14331B680B4013B1A2
:1002C0000AB1012000E00020704700000004014056
:1002D000002123498279002A3AD00A46126803682D
:1002E0009A430B461A600A1D126803689A430B1D55
:1002F0001A60027911440A6803681A430A60184AAE
:100300000832126803689A43154B08331A601A1DA5
:10031000126803689A43124B0C331A604279102A10
:100320000ED11A1F126803681A430D4B08331A6066
:100330001A1D126803681A43094B0C331A600DE04A
:100340000749427911440A6803681A430A6005E0C4
:10035000027911440A6803689A430A6070470000F2
:100360000004014030B500228B071C0F0F2303FA55
:1003700004F20B4B8C1053F824309343084C8D102F
:1003800044F8253023468C1053F824308C07240F72
:1003900000FA04F42343024C8D1044F8253030BD9C
:1003A000080001402DE9F04102460025002600200A
:1003B00000230024002791F803C00CF00F0591F8EA
:1003C00003C00CF0100CBCF1000F03D091F802C078
:1003D0004CEA050591F800C0BCF1000F31D014685B
:1003E00000202BE04FF0010C0CFA00F3B1F800C034
:1003F0000CEA03069E4220D183004FF00F0C0CFA4A
:1004000003F7BC4305FA03FC4CEA040491F803C06B
:10041000BCF1280F06D14FF0010C0CFA00FCC2F819
:1004200014C00AE091F803C0BCF1480F05D14FF0A9
:10043000010C0CFA00FCC2F810C0401C0828D1D3F3
:100440001460B1F800C0BCF1FF0F34DD5468002027
:100450002EE000F1080C4FF0010808FA0CF3B1F897
:1004600000C00CEA03069E4221D183004FF00F0C1E
:100470000CFA03F7BC4305FA03FC4CEA040491F8B8
:1004800003C0BCF1280F05D100F1080C08FA0CF8E4
:10049000C2F8148091F803C0BCF1480F07D100F1F5
:1004A000080C4FF0010808FA0CF8C2F81080401C44
:1004B0000828CED35460BDE8F0810161704700BFC9
:1004C000FEE7000008B50121082000F09BF810208D
:1004D0008DF8030003208DF802000120ADF8000024
:1004E00069460F48FFF75EFF0220ADF8000069463D
:1004F0000B48FFF757FF2020ADF800006946084879
:10050000FFF750FF01210648FFF7D7FF02210448FB
:10051000FFF7D3FF20210248FFF7CFFF08BD0000FF
:10052000000C014000BFFEE7704708B54FF4C06003
:1005300000F04CF806208DF8000001208DF8010035
:100540008DF802008DF80300684600F007F82820B7
:100550008DF80000684600F001F808BD70B5002174
:1005600000230F22C47804B3154C246804F4E0641B
:10057000C4F5E064210AC1F10403CA40447804FAD6
:1005800003F184781440214309010E4C0678A155EB
:10059000047804F01F050124AC4005786D11AD000E
:1005A00005F1E025C5F8004109E0047804F01F05D5
:1005B0000124AC40044D0678761145F8264070BD04
:1005C0000CED00E000E400E080E100E002490143BE
:1005D000024A1160704700000000FA050CED00E0CF
:1005E0007047000029B1064AD2690243044BDA6120
:1005F00004E0034AD2698243014BDA61704700008C
:100600000010024029B1064A92690243044B9A61E4
:1006100004E0034A92698243014B9A6170470000EB
:100620000010024030B500210022002400232D4D8F
:100630006D6805F00C0121B1042905D0082923D1EA
:1006400005E0294D056022E0274D05601FE0254D9E
:100650006D6805F47012234D6D6805F48034022531
:1006600005EB92421CB9214D554305600BE01D4D31
:100670006D6805F400351DB11C4D5543056002E061
:10068000194D5543056002E0174D056000BF00BFDE
:10069000144D6D6805F0F0010909154D6B5C056896
:1006A000DD4045600F4D6D6805F4E061090A104DAD
:1006B0006B5C4568DD4085600A4D6D6805F46051EE
:1006C000C90A0B4D6B5C4568DD40C560054D6D6822
:1006D00005F44041890B074D6B5CC568B5FBF3F52C
:1006E000056130BD0010024000127A0000093D0093
:1006F0001400002024000020704710B500F002F81C
:1007000010BD00000CB50020019000903348006837
:1007100040F480303149086000BF3048006800F480
:10072000003000900198401C0190009818B9019881
:10073000B0F5A06FF1D12948006800F4003010B185
:100740000120009001E0002000900098012843D192
:100750002348006840F010002149086008460068FE
:1007600020F0030008600846006840F002000860BE
:100770001A48406819494860084640684860084679
:10078000406840F4806048600846406820F47C106F
:1007900048600846406840F4E81048600846006831
:1007A00040F08070086000BF0C48006800F00070E6
:1007B0000028F9D00948406820F003000749486044
:1007C0000846406840F00200486000BF03484068A7
:1007D00000F00C000828F9D10CBD00000010024008
:1007E0000020024010B510A000F0B4FC4FF4E1313D
:1007F0001AA000F0AFFC23A000F0ACFC2EA000F08B
:10080000A9FC36A000F0A6FC3BA000F0A3FC41A090
:1008100000F0A0FC46A000F09DFC4CA000F09AFC6B
:1008200051A000F097FC10BD0D0A202020D5E2CA8F
:10083000C7D2BBB8F6CDA8B9FDB4AEBFDACDA8D04B
:10084000C5D6B8C1EEBFD8D6C63432B2BDBDF8B534
:10085000E7BBFACAB5D1E9200A000000CAB9D3C380
:10086000202055534152542020B2CECAFDCEAAA317
:10087000BA256420A1B072A1B1A1B073A1B1200AC0
:1008800000000000BFAAB7A2B0E5BDD3B5BDD6B881
:10089000C1EEBAF3BFD8D6C6B2BDBDF8B5E7BBFA54
:1008A000D7B4CCACA3ACD6B8C1EEB6D4D3A6C8E707
:1008B000CFC2A3BA0A000000202020D6B8C1EE2083
:1008C00020202D2D2D2D2D2D20B6AFCDA3D5FDB75C
:1008D000B4BCD3BCF5CBD9200A00000020202020D6
:1008E0002072202020202D2D2D2D2D2D2020202068
:1008F000B6AF200A00000000202020202073202016
:1009000020202D2D2D2D2D2D20202020CDA3200A7F
:1009100000000000202020202031202020202D2D2C
:100920002D2D2D2D20202020D5FD200A0000000097
:10093000202020202030202020202D2D2D2D2D2D59
:1009400020202020B7B4200A000000002020202012
:10095000202B202020202D2D2D2D2D2D202020203E
:10096000BCD3CBD9200A000020202020202D20201D
:1009700020202D2D2D2D2D2D20202020BCF5CBD954
:10098000200A000010B500F005F800F043F800F070
:100990006DF810BD08B501211D20FFF733FE1020B2
:1009A0008DF8030003208DF802002020ADF8000030
:1009B00069461548FFF7F6FC4FF48070ADF800006B
:1009C00069461248FFF7EEFC4020ADF8000069468A
:1009D0000F48FFF7E7FC8020ADF8000069460C489F
:1009E000FFF7E0FC20210848FFF767FD4FF4807116
:1009F0000648FFF762FD40210548FFF75EFD8021B4
:100A00000348FFF75AFD08BD000C014000080140F3
:100A10000010014008B501210920FFF7F3FD18205F
:100A20008DF8030003208DF802004020ADF800008F
:100A300069460D48FFF7B6FC8020ADF80000694616
:100A40000948FFF7AFFC4FF48070ADF8000069462D
:100A50000548FFF7A7FC4FF40070ADF800006946A9
:100A60000148FFF79FFC08BD000C014000B587B0AE
:100A700001210420FFF7B6FD234800684FF4E1513F
:100A8000B0FBF1F0401E80B2ADF814004720ADF885
:100A900010000020ADF81600ADF8120004A91B48A4
:100AA00000F034FA6020ADF800000020ADF802003C
:100AB000ADF808006946154800F0F0F8694613489B
:100AC00000F038F96946114800F086F969460F4888
:100AD00000F0D2F9002211460C4800F0C3F80022C1
:100AE00004210A4800F0BEF800220821074800F05F
:100AF000B9F800220C21054800F0B4F800210348A1
:100B000000F0BFF807B000BD000000200008004062
:100B100070B5054605EBC500C00027490968B1FB63
:100B2000F0F0441EA1B2254800F0E4F9601C322127
:100B30004843642190FBF1F086B231461F4800F033
:100B4000DBF9601C32214843642190FBF1F086B24E
:100B500031461A4800F0D2F9601C32214843642122
:100B600090FBF1F086B23146144800F0C9F9601CE0
:100B700032214843642190FBF1F086B231460F48A0
:100B800000F0C0F9012200210C4800F06BF80122AE
:100B900004210A4800F066F801220821074800F005
:100BA00061F801220C21054800F05CF8012103489E
:100BB00000F067F870BD0000000000200008004051
:100BC00010B500210D4800F099F9012200210B48D1
:100BD00000F048F801220421084800F043F80122FF
:100BE0000821064800F03EF801220C21034800F0DD
:100BF00039F80021014800F044F810BD0008004019
:100C00007047000010B51348006840F0010011491A
:100C1000086008464068104908400E494860084688
:100C200000680E4908400B4908600846006820F437
:100C3000802008600846406820F4FE0048604FF4B9
:100C40001F008860FFF759FD4FF0006004490860FD
:100C500010BD0000001002400000FFF8FFFFF6FE8C
:100C600008ED00E030B5002301248C40A3B2048CD1
:100C70009C430484048C02FA01F5ADB22C43048435
:100C800030BD21B1028842F00102028004E00288F6
:100C90004FF6FE731A4002807047000070B50024C2
:100CA00000220023058C4FF6FE7635400584028C29
:100CB0008388048B4FF68F752C40B51E2C400D8811
:100CC0002C43751E2A400D892A434D882A43144D12
:100CD000A8420BD0134DA84208D0134DA84205D00E
:100CE000124DA84202D0124DA84213D14FF6F7750B
:100CF0002A404D892A434FF6FB752A408D882A43A6
:100D00004FF6FF652B404FF6FF552B408D892B4347
:100D1000CD892B4383800483CD888586028470BD72
:100D2000002C0140003401400040014000440140DB
:100D30000048014070B5002400220023058C4FF6C6
:100D4000EF7635400584028C8388048B48F6FF7566
:100D50002C404FF6FF452C400D884FF6FF7606EAF3
:100D600005252C434FF6DF752A400D8906EA051547
:100D70002A434D8806EA05152A43154DA84202D09C
:100D8000144DA8421DD14FF67F752A404D894FF66C
:100D9000FF7606EA05152A434FF6BF752A408D886F
:100DA00006EA05152A434FF6FF352B404FF2FF7533
:100DB0002B408D8906EA85052B43CD8906EA8505FA
:100DC0002B4383800483CD880587028470BD000097
:100DD000002C01400034014070B5002400220023A3
:100DE000058C4FF6FF6635400584028C8388848B22
:100DF0004FF68F752C404FF6FC752C400D882C4318
:100E00004FF6FF552A400D894FF6FF7606EA052575
:100E10002A434D8806EA05252A43154DA84202D0EB
:100E2000144DA8421DD14FF2FF752A404D894FF64F
:100E3000FF7606EA05252A434FF6FF352A408D88BE
:100E400006EA05252A434EF6FF752B404DF6FF7541
:100E50002B408D8906EA05152B43CD8906EA051539
:100E60002B4383808483CD888587028470BD0000F6
:100E7000002C01400034014070B500220023002402
:100E8000058C4EF6FF7635400584038C8488828B72
:100E900048F6FF752A404FF6FF452A400D884FF669
:100EA000FF7606EA05252A434DF6FF752B400D898E
:100EB00006EA05352B434D8806EA05352B430B4DD5
:100EC000A84202D00A4DA84208D14BF6FF752C402B
:100ED0008D894FF6FF7606EA85152C438480828340
:100EE000CD88A0F84050038470BD0000002C014064
:100EF00000340140818570478186704701877047C3
:100F000081877047A0F840107047000000220288D7
:100F10001D4B98420ED01D4B98420BD0B0F1804F24
:100F200008D01B4B984205D01A4B984202D01A4B5E
:100F3000984204D14FF68F731A404B881A43174BCF
:100F4000984207D0164B984204D04FF6FF431A4000
:100F5000CB881A4302808B8883850B8803850A4BD4
:100F600098420BD0094B984208D00E4B984205D0BE
:100F70000D4B984202D00D4B984201D10B7A03865B
:100F80000123838270470000002C0140003401409F
:100F90000004004000080040000C00400010004029
:100FA000001400400040014000440140004801405E
:100FB00021B1828942F40052828104E082894DF697
:100FC000FF731A408281704700B585B0012104206B
:100FD000FFF718FB01218803FFF714FB4FF40070A3
:100FE000ADF8100018208DF8130003208DF81200C2
:100FF00004A91348FFF7D6F94FF48060ADF810004C
:1010000004208DF8130004A90D48FFF7CBF94FF425
:10101000E13000900020ADF80400ADF80600ADF816
:101020000800ADF80C000C20ADF80A006946054830
:1010300000F018F801210348FFF7BAFF05B000BD22
:10104000000801400038014002460020B1F5007F51
:1010500000D100BF13880B400BB1012000E000203D
:10106000704700002DE9F04786B005460E46002483
:10107000A24600BFA1460027B08900B100BF2F469D
:101080002C8A4CF6FF700440F08804432C82AC8913
:101090004EF6F3100440B088318908437189084343
:1010A0000443AC81AC8A4FF6FF400440B08904434E
:1010B000AC8201A8FFF7B6FA1F48874202D1DDF8DB
:1010C00010A001E0DDF80CA0A88900F4004040B1B8
:1010D0000AEBCA0000EB0A1031684900B0FBF1F8D6
:1010E00007E00AEBCA0000EB0A1031688900B0FB88
:1010F000F1F86420B8FBF0F004012009642101FB41
:101100001089A88900F4004040B1322000EBC900EA
:10111000B0FBF1F000F00700044308E0322000EBE0
:1011200009106421B0FBF1F000F00F0004432C81A2
:1011300006B0BDE8F087000000380140014688880D
:10114000C0F308007047C1F308028280704700BFF7
:10115000FEE700000FB4054B10B503A9044A02983E
:1011600000F018F810BC5DF814FB00006D130008C7
:101170002C00002002E008C8121F08C1002AFAD182
:1011800070477047002001E001C1121F002AFBD107
:10119000704700002DE9FF4F8BB09A460F46054679
:1011A000002606E025280BD052460D9990476D1C6D
:1011B000761C28780028F5D10FB03046BDE8F08FB6
:1011C0000024A0460122604900E0044315F8013FD5
:1011D000203B02FA03F00842F7D128782E2817D1D5
:1011E00015F8010F44F004042A280ED06FF02F02E6
:1011F0002878A0F1300109290AD808EB880102EB10
:10120000410100EB01086D1CF2E757F8048B6D1CDF
:10121000287869283ED006DC0028CDD063280BD082
:10122000642804D136E0732810D075284BD052467C
:101230000D999047761C85E017F8040B8DF8000097
:1012400000208DF80100E946012003E057F8049BD7
:101250004FF0FF3061074FF0000401D40AE0641C36
:1012600044450DDA8442FADB19F804100029F6D15E
:1012700006E0641C8442FCDB19F804100029F8D154
:10128000264404E019F8010B52460D999047641E5C
:10129000F8D257E001CF4FF00A0B002802DA4042A3
:1012A0002D2102E0210504D52B218DF824100121E8
:1012B00003E0E10705D02021F7E70DF120090891AF
:1012C0000CE00021F9E701CF4FF00A0BF9E759468E
:1012D000FEF74AFF01F1300209F8012D0028F6D18E
:1012E000ADEB090000F1200B600701D44FF00108BD
:1012F000D84502DDA8EB0B0000E00020804600246A
:1013000006E009A85246005D0D999047641C761CC2
:1013100008988442F5DB04E0302052460D9990474E
:10132000761CB8F10001A8F10108F5DC05E019F818
:10133000010B52460D999047761CBBF10001ABF1B1
:10134000010BF4DC6D1C34E70928010010B50446DC
:1013500000BF20210448FFF777FE0028F9D002489B
:10136000FFF7ECFE10BD00000038014070B50446E8
:101370000D46E1B20548FFF7E6FE00BF80210348B5
:10138000FFF762FE0028F9D0204670BD003801400A
:10139000FFF7DCBFFFF796F8FEF712FFFFF7F2FA50
:1013A0006420FFF7B5FBFFF78DF8FFF70DFEFFF7A1
:1013B00019FA642435E01B48FFF7EAFFC5B2294655
:1013C00019A0FFF7C7FE312D13D006DC2B2D16D048
:1013D0002D2D19D0302D1CD10EE0722D02D0732D81
:1013E00017D103E02046FFF793FB15E0FFF7E8FB7A
:1013F00012E0FFF7E5FB0FE0FFF7E2FB0CE00A3439
:101400002046FFF785FB07E00A3C2046FFF780FBFC
:1014100002E0FFF7E7F900BF00BF214606A0FFF793
:1014200099FEC8E728000020BDD3CAD5B5BDD7D6E0
:10143000B7FBA3BA25630A00B5B1C7B0C6B5C2CA27
:10144000A3BA25640A000000681400080000002008
:1014500030000000741100089814000830000020CB
:10146000000400008411000800A24A0400000000EB
:101470000000000001020304060708090000000044
:101480000102030401020304060708090204060816
:08149000000000000000000054
:0400000508000131BD
:00000001FF
